{
  "_format": "hh-sol-artifact-1",
  "contractName": "Swaplace",
  "sourceName": "contracts/Swaplace.sol",
  "abi": [
    {
      "inputs": [
        {
          "internalType": "address",
          "name": "caller",
          "type": "address"
        }
      ],
      "name": "InvalidAddress",
      "type": "error"
    },
    {
      "inputs": [],
      "name": "InvalidAssetsLength",
      "type": "error"
    },
    {
      "inputs": [
        {
          "internalType": "uint256",
          "name": "timestamp",
          "type": "uint256"
        }
      ],
      "name": "InvalidExpiry",
      "type": "error"
    },
    {
      "anonymous": false,
      "inputs": [
        {
          "indexed": true,
          "internalType": "uint256",
          "name": "swapId",
          "type": "uint256"
        },
        {
          "indexed": true,
          "internalType": "address",
          "name": "acceptee",
          "type": "address"
        }
      ],
      "name": "SwapAccepted",
      "type": "event"
    },
    {
      "anonymous": false,
      "inputs": [
        {
          "indexed": true,
          "internalType": "uint256",
          "name": "swapId",
          "type": "uint256"
        },
        {
          "indexed": true,
          "internalType": "address",
          "name": "owner",
          "type": "address"
        }
      ],
      "name": "SwapCanceled",
      "type": "event"
    },
    {
      "anonymous": false,
      "inputs": [
        {
          "indexed": true,
          "internalType": "uint256",
          "name": "swapId",
          "type": "uint256"
        },
        {
          "indexed": true,
          "internalType": "address",
          "name": "owner",
          "type": "address"
        },
        {
          "indexed": true,
          "internalType": "address",
          "name": "allowed",
          "type": "address"
        },
        {
          "indexed": false,
          "internalType": "uint256",
          "name": "expiry",
          "type": "uint256"
        }
      ],
      "name": "SwapCreated",
      "type": "event"
    },
    {
      "inputs": [
        {
          "internalType": "uint256",
          "name": "swapId",
          "type": "uint256"
        }
      ],
      "name": "acceptSwap",
      "outputs": [
        {
          "internalType": "bool",
          "name": "",
          "type": "bool"
        }
      ],
      "stateMutability": "nonpayable",
      "type": "function"
    },
    {
      "inputs": [
        {
          "internalType": "uint256",
          "name": "swapId",
          "type": "uint256"
        }
      ],
      "name": "cancelSwap",
      "outputs": [],
      "stateMutability": "nonpayable",
      "type": "function"
    },
    {
      "inputs": [
        {
          "components": [
            {
              "internalType": "address",
              "name": "owner",
              "type": "address"
            },
            {
              "internalType": "address",
              "name": "allowed",
              "type": "address"
            },
            {
              "internalType": "uint256",
              "name": "expiry",
              "type": "uint256"
            },
            {
              "components": [
                {
                  "internalType": "address",
                  "name": "addr",
                  "type": "address"
                },
                {
                  "internalType": "uint256",
                  "name": "amountOrId",
                  "type": "uint256"
                }
              ],
              "internalType": "struct ISwap.Asset[]",
              "name": "biding",
              "type": "tuple[]"
            },
            {
              "components": [
                {
                  "internalType": "address",
                  "name": "addr",
                  "type": "address"
                },
                {
                  "internalType": "uint256",
                  "name": "amountOrId",
                  "type": "uint256"
                }
              ],
              "internalType": "struct ISwap.Asset[]",
              "name": "asking",
              "type": "tuple[]"
            }
          ],
          "internalType": "struct ISwap.Swap",
          "name": "swap",
          "type": "tuple"
        }
      ],
      "name": "createSwap",
      "outputs": [
        {
          "internalType": "uint256",
          "name": "",
          "type": "uint256"
        }
      ],
      "stateMutability": "nonpayable",
      "type": "function"
    },
    {
      "inputs": [
        {
          "internalType": "uint256",
          "name": "swapId",
          "type": "uint256"
        }
      ],
      "name": "getSwap",
      "outputs": [
        {
          "components": [
            {
              "internalType": "address",
              "name": "owner",
              "type": "address"
            },
            {
              "internalType": "address",
              "name": "allowed",
              "type": "address"
            },
            {
              "internalType": "uint256",
              "name": "expiry",
              "type": "uint256"
            },
            {
              "components": [
                {
                  "internalType": "address",
                  "name": "addr",
                  "type": "address"
                },
                {
                  "internalType": "uint256",
                  "name": "amountOrId",
                  "type": "uint256"
                }
              ],
              "internalType": "struct ISwap.Asset[]",
              "name": "biding",
              "type": "tuple[]"
            },
            {
              "components": [
                {
                  "internalType": "address",
                  "name": "addr",
                  "type": "address"
                },
                {
                  "internalType": "uint256",
                  "name": "amountOrId",
                  "type": "uint256"
                }
              ],
              "internalType": "struct ISwap.Asset[]",
              "name": "asking",
              "type": "tuple[]"
            }
          ],
          "internalType": "struct ISwap.Swap",
          "name": "",
          "type": "tuple"
        }
      ],
      "stateMutability": "view",
      "type": "function"
    },
    {
      "inputs": [
        {
          "internalType": "address",
          "name": "addr",
          "type": "address"
        },
        {
          "internalType": "uint256",
          "name": "amountOrId",
          "type": "uint256"
        }
      ],
      "name": "makeAsset",
      "outputs": [
        {
          "components": [
            {
              "internalType": "address",
              "name": "addr",
              "type": "address"
            },
            {
              "internalType": "uint256",
              "name": "amountOrId",
              "type": "uint256"
            }
          ],
          "internalType": "struct ISwap.Asset",
          "name": "",
          "type": "tuple"
        }
      ],
      "stateMutability": "pure",
      "type": "function"
    },
    {
      "inputs": [
        {
          "internalType": "address",
          "name": "owner",
          "type": "address"
        },
        {
          "internalType": "address",
          "name": "allowed",
          "type": "address"
        },
        {
          "internalType": "uint256",
          "name": "expiry",
          "type": "uint256"
        },
        {
          "components": [
            {
              "internalType": "address",
              "name": "addr",
              "type": "address"
            },
            {
              "internalType": "uint256",
              "name": "amountOrId",
              "type": "uint256"
            }
          ],
          "internalType": "struct ISwap.Asset[]",
          "name": "biding",
          "type": "tuple[]"
        },
        {
          "components": [
            {
              "internalType": "address",
              "name": "addr",
              "type": "address"
            },
            {
              "internalType": "uint256",
              "name": "amountOrId",
              "type": "uint256"
            }
          ],
          "internalType": "struct ISwap.Asset[]",
          "name": "asking",
          "type": "tuple[]"
        }
      ],
      "name": "makeSwap",
      "outputs": [
        {
          "components": [
            {
              "internalType": "address",
              "name": "owner",
              "type": "address"
            },
            {
              "internalType": "address",
              "name": "allowed",
              "type": "address"
            },
            {
              "internalType": "uint256",
              "name": "expiry",
              "type": "uint256"
            },
            {
              "components": [
                {
                  "internalType": "address",
                  "name": "addr",
                  "type": "address"
                },
                {
                  "internalType": "uint256",
                  "name": "amountOrId",
                  "type": "uint256"
                }
              ],
              "internalType": "struct ISwap.Asset[]",
              "name": "biding",
              "type": "tuple[]"
            },
            {
              "components": [
                {
                  "internalType": "address",
                  "name": "addr",
                  "type": "address"
                },
                {
                  "internalType": "uint256",
                  "name": "amountOrId",
                  "type": "uint256"
                }
              ],
              "internalType": "struct ISwap.Asset[]",
              "name": "asking",
              "type": "tuple[]"
            }
          ],
          "internalType": "struct ISwap.Swap",
          "name": "",
          "type": "tuple"
        }
      ],
      "stateMutability": "view",
      "type": "function"
    },
    {
      "inputs": [
        {
          "internalType": "bytes4",
          "name": "interfaceID",
          "type": "bytes4"
        }
      ],
      "name": "supportsInterface",
      "outputs": [
        {
          "internalType": "bool",
          "name": "",
          "type": "bool"
        }
      ],
      "stateMutability": "pure",
      "type": "function"
    },
    {
      "inputs": [],
      "name": "totalSwaps",
      "outputs": [
        {
          "internalType": "uint256",
          "name": "",
          "type": "uint256"
        }
      ],
      "stateMutability": "view",
      "type": "function"
    }
  ],
  "bytecode": "0x608060405234801561001057600080fd5b50611f0b806100206000396000f3fe608060405234801561001057600080fd5b50600436106100885760003560e01c806354d6a2b71161005b57806354d6a2b71461014d5780639bd4563f146101695780639df7f0b414610199578063b4a800ce146101c957610088565b806301ffc9a71461008d5780631bf33004146100bd5780633a56b627146100ed5780634a0d89ba1461011d575b600080fd5b6100a760048036038101906100a29190611217565b6101e7565b6040516100b4919061125f565b60405180910390f35b6100d760048036038101906100d291906112b0565b6102b9565b6040516100e4919061125f565b60405180910390f35b61010760048036038101906101029190611301565b61081d565b6040516101149190611359565b60405180910390f35b610137600480360381019061013291906112b0565b610a0d565b604051610144919061151f565b60405180910390f35b610167600480360381019061016291906112b0565b610c6e565b005b610183600480360381019061017e919061171b565b610fe9565b604051610190919061151f565b60405180910390f35b6101b360048036038101906101ae91906117ce565b6110dc565b6040516101c0919061183d565b60405180910390f35b6101d1611117565b6040516101de9190611359565b60405180910390f35b60007f01ffc9a7000000000000000000000000000000000000000000000000000000007bffffffffffffffffffffffffffffffffffffffffffffffffffffffff1916827bffffffffffffffffffffffffffffffffffffffffffffffffffffffff191614806102b257507f3f7ead2e000000000000000000000000000000000000000000000000000000007bffffffffffffffffffffffffffffffffffffffffffffffffffffffff1916827bffffffffffffffffffffffffffffffffffffffffffffffffffffffff1916145b9050919050565b600080600160008481526020019081526020016000206040518060a00160405290816000820160009054906101000a900473ffffffffffffffffffffffffffffffffffffffff1673ffffffffffffffffffffffffffffffffffffffff1673ffffffffffffffffffffffffffffffffffffffff1681526020016001820160009054906101000a900473ffffffffffffffffffffffffffffffffffffffff1673ffffffffffffffffffffffffffffffffffffffff1673ffffffffffffffffffffffffffffffffffffffff1681526020016002820154815260200160038201805480602002602001604051908101604052809291908181526020016000905b8282101561044757838290600052602060002090600202016040518060400160405290816000820160009054906101000a900473ffffffffffffffffffffffffffffffffffffffff1673ffffffffffffffffffffffffffffffffffffffff1673ffffffffffffffffffffffffffffffffffffffff168152602001600182015481525050815260200190600101906103b5565b50505050815260200160048201805480602002602001604051908101604052809291908181526020016000905b8282101561050657838290600052602060002090600202016040518060400160405290816000820160009054906101000a900473ffffffffffffffffffffffffffffffffffffffff1673ffffffffffffffffffffffffffffffffffffffff1673ffffffffffffffffffffffffffffffffffffffff16815260200160018201548152505081526020019060010190610474565b50505050815250509050600073ffffffffffffffffffffffffffffffffffffffff16816020015173ffffffffffffffffffffffffffffffffffffffff161415801561058157503373ffffffffffffffffffffffffffffffffffffffff16816020015173ffffffffffffffffffffffffffffffffffffffff1614155b156105c357336040517f8e4c8aa60000000000000000000000000000000000000000000000000000000081526004016105ba9190611867565b60405180910390fd5b42816040015110156106105780604001516040517f3accc52b0000000000000000000000000000000000000000000000000000000081526004016106079190611359565b60405180910390fd5b6000600160008581526020019081526020016000206002018190555060008160800151905060005b81518110156106fd5781818151811061065457610653611882565b5b60200260200101516000015173ffffffffffffffffffffffffffffffffffffffff166323b872dd33856000015185858151811061069457610693611882565b5b6020026020010151602001516040518463ffffffff1660e01b81526004016106be939291906118b1565b600060405180830381600087803b1580156106d857600080fd5b505af11580156106ec573d6000803e3d6000fd5b505050508080600101915050610638565b508160600151905060005b81518110156107cd5781818151811061072457610723611882565b5b60200260200101516000015173ffffffffffffffffffffffffffffffffffffffff166323b872dd84600001513385858151811061076457610763611882565b5b6020026020010151602001516040518463ffffffff1660e01b815260040161078e939291906118b1565b600060405180830381600087803b1580156107a857600080fd5b505af11580156107bc573d6000803e3d6000fd5b505050508080600101915050610708565b503373ffffffffffffffffffffffffffffffffffffffff16847f38eced64b5c4ab50bb61d2f5fcace3c629a2d92f974374bf4a4f3e8a7c49caef60405160405180910390a3600192505050919050565b60003373ffffffffffffffffffffffffffffffffffffffff1682600001602081019061084991906118e8565b73ffffffffffffffffffffffffffffffffffffffff16146108a157336040517f8e4c8aa60000000000000000000000000000000000000000000000000000000081526004016108989190611867565b60405180910390fd5b42826040013510156108ee5781604001356040517f3accc52b0000000000000000000000000000000000000000000000000000000081526004016108e59190611359565b60405180910390fd5b60008280606001906109009190611924565b9050148061091f5750600082806080019061091b9190611924565b9050145b15610956576040517fb6ea7e2700000000000000000000000000000000000000000000000000000000815260040160405180910390fd5b600160005401600055600080549050826001600083815260200190815260200160002081816109859190611ec7565b90505082602001602081019061099b91906118e8565b73ffffffffffffffffffffffffffffffffffffffff163373ffffffffffffffffffffffffffffffffffffffff16827f61c671bde4c0f6eb9f240b498960a7751c66c73d4ec4cfea3090bb58e7b476ee86604001356040516109fc9190611359565b60405180910390a480915050919050565b610a15611120565b600160008381526020019081526020016000206040518060a00160405290816000820160009054906101000a900473ffffffffffffffffffffffffffffffffffffffff1673ffffffffffffffffffffffffffffffffffffffff1673ffffffffffffffffffffffffffffffffffffffff1681526020016001820160009054906101000a900473ffffffffffffffffffffffffffffffffffffffff1673ffffffffffffffffffffffffffffffffffffffff1673ffffffffffffffffffffffffffffffffffffffff1681526020016002820154815260200160038201805480602002602001604051908101604052809291908181526020016000905b82821015610ba057838290600052602060002090600202016040518060400160405290816000820160009054906101000a900473ffffffffffffffffffffffffffffffffffffffff1673ffffffffffffffffffffffffffffffffffffffff1673ffffffffffffffffffffffffffffffffffffffff16815260200160018201548152505081526020019060010190610b0e565b50505050815260200160048201805480602002602001604051908101604052809291908181526020016000905b82821015610c5f57838290600052602060002090600202016040518060400160405290816000820160009054906101000a900473ffffffffffffffffffffffffffffffffffffffff1673ffffffffffffffffffffffffffffffffffffffff1673ffffffffffffffffffffffffffffffffffffffff16815260200160018201548152505081526020019060010190610bcd565b50505050815250509050919050565b6000600160008381526020019081526020016000206040518060a00160405290816000820160009054906101000a900473ffffffffffffffffffffffffffffffffffffffff1673ffffffffffffffffffffffffffffffffffffffff1673ffffffffffffffffffffffffffffffffffffffff1681526020016001820160009054906101000a900473ffffffffffffffffffffffffffffffffffffffff1673ffffffffffffffffffffffffffffffffffffffff1673ffffffffffffffffffffffffffffffffffffffff1681526020016002820154815260200160038201805480602002602001604051908101604052809291908181526020016000905b82821015610dfb57838290600052602060002090600202016040518060400160405290816000820160009054906101000a900473ffffffffffffffffffffffffffffffffffffffff1673ffffffffffffffffffffffffffffffffffffffff1673ffffffffffffffffffffffffffffffffffffffff16815260200160018201548152505081526020019060010190610d69565b50505050815260200160048201805480602002602001604051908101604052809291908181526020016000905b82821015610eba57838290600052602060002090600202016040518060400160405290816000820160009054906101000a900473ffffffffffffffffffffffffffffffffffffffff1673ffffffffffffffffffffffffffffffffffffffff1673ffffffffffffffffffffffffffffffffffffffff16815260200160018201548152505081526020019060010190610e28565b505050508152505090503373ffffffffffffffffffffffffffffffffffffffff16816000015173ffffffffffffffffffffffffffffffffffffffff1614610f3857336040517f8e4c8aa6000000000000000000000000000000000000000000000000000000008152600401610f2f9190611867565b60405180910390fd5b4281604001511015610f855780604001516040517f3accc52b000000000000000000000000000000000000000000000000000000008152600401610f7c9190611359565b60405180910390fd5b600060016000848152602001908152602001600020600201819055503373ffffffffffffffffffffffffffffffffffffffff16827f0a01e988a96145b1dd49cafc687666a0525e6b929299df4652cc646915e696d860405160405180910390a35050565b610ff1611120565b4284101561103657836040517f3accc52b00000000000000000000000000000000000000000000000000000000815260040161102d9190611359565b60405180910390fd5b600083511480611047575060008251145b1561107e576040517fb6ea7e2700000000000000000000000000000000000000000000000000000000815260040160405180910390fd5b6040518060a001604052808773ffffffffffffffffffffffffffffffffffffffff1681526020018673ffffffffffffffffffffffffffffffffffffffff16815260200185815260200184815260200183815250905095945050505050565b6110e461117b565b60405180604001604052808473ffffffffffffffffffffffffffffffffffffffff16815260200183815250905092915050565b60008054905090565b6040518060a00160405280600073ffffffffffffffffffffffffffffffffffffffff168152602001600073ffffffffffffffffffffffffffffffffffffffff1681526020016000815260200160608152602001606081525090565b6040518060400160405280600073ffffffffffffffffffffffffffffffffffffffff168152602001600081525090565b6000604051905090565b600080fd5b600080fd5b60007fffffffff0000000000000000000000000000000000000000000000000000000082169050919050565b6111f4816111bf565b81146111ff57600080fd5b50565b600081359050611211816111eb565b92915050565b60006020828403121561122d5761122c6111b5565b5b600061123b84828501611202565b91505092915050565b60008115159050919050565b61125981611244565b82525050565b60006020820190506112746000830184611250565b92915050565b6000819050919050565b61128d8161127a565b811461129857600080fd5b50565b6000813590506112aa81611284565b92915050565b6000602082840312156112c6576112c56111b5565b5b60006112d48482850161129b565b91505092915050565b600080fd5b600060a082840312156112f8576112f76112dd565b5b81905092915050565b600060208284031215611317576113166111b5565b5b600082013567ffffffffffffffff811115611335576113346111ba565b5b611341848285016112e2565b91505092915050565b6113538161127a565b82525050565b600060208201905061136e600083018461134a565b92915050565b600073ffffffffffffffffffffffffffffffffffffffff82169050919050565b600061139f82611374565b9050919050565b6113af81611394565b82525050565b6113be8161127a565b82525050565b600081519050919050565b600082825260208201905092915050565b6000819050602082019050919050565b60408201600082015161140660008501826113a6565b50602082015161141960208501826113b5565b50505050565b600061142b83836113f0565b60408301905092915050565b6000602082019050919050565b600061144f826113c4565b61145981856113cf565b9350611464836113e0565b8060005b8381101561149557815161147c888261141f565b975061148783611437565b925050600181019050611468565b5085935050505092915050565b600060a0830160008301516114ba60008601826113a6565b5060208301516114cd60208601826113a6565b5060408301516114e060408601826113b5565b50606083015184820360608601526114f88282611444565b915050608083015184820360808601526115128282611444565b9150508091505092915050565b6000602082019050818103600083015261153981846114a2565b905092915050565b61154a81611394565b811461155557600080fd5b50565b60008135905061156781611541565b92915050565b600080fd5b6000601f19601f8301169050919050565b7f4e487b7100000000000000000000000000000000000000000000000000000000600052604160045260246000fd5b6115bb82611572565b810181811067ffffffffffffffff821117156115da576115d9611583565b5b80604052505050565b60006115ed6111ab565b90506115f982826115b2565b919050565b600067ffffffffffffffff82111561161957611618611583565b5b602082029050602081019050919050565b600080fd5b600080fd5b60006040828403121561164a5761164961162f565b5b61165460406115e3565b9050600061166484828501611558565b60008301525060206116788482850161129b565b60208301525092915050565b6000611697611692846115fe565b6115e3565b905080838252602082019050604084028301858111156116ba576116b961162a565b5b835b818110156116e357806116cf8882611634565b8452602084019350506040810190506116bc565b5050509392505050565b600082601f8301126117025761170161156d565b5b8135611712848260208601611684565b91505092915050565b600080600080600060a08688031215611737576117366111b5565b5b600061174588828901611558565b955050602061175688828901611558565b94505060406117678882890161129b565b935050606086013567ffffffffffffffff811115611788576117876111ba565b5b611794888289016116ed565b925050608086013567ffffffffffffffff8111156117b5576117b46111ba565b5b6117c1888289016116ed565b9150509295509295909350565b600080604083850312156117e5576117e46111b5565b5b60006117f385828601611558565b92505060206118048582860161129b565b9150509250929050565b60408201600082015161182460008501826113a6565b50602082015161183760208501826113b5565b50505050565b6000604082019050611852600083018461180e565b92915050565b61186181611394565b82525050565b600060208201905061187c6000830184611858565b92915050565b7f4e487b7100000000000000000000000000000000000000000000000000000000600052603260045260246000fd5b60006060820190506118c66000830186611858565b6118d36020830185611858565b6118e0604083018461134a565b949350505050565b6000602082840312156118fe576118fd6111b5565b5b600061190c84828501611558565b91505092915050565b600080fd5b600080fd5b600080fd5b6000808335600160200384360303811261194157611940611915565b5b80840192508235915067ffffffffffffffff8211156119635761196261191a565b5b60208301925060408202360383131561197f5761197e61191f565b5b509250929050565b7f4e487b7100000000000000000000000000000000000000000000000000000000600052600060045260246000fd5b600081356119c381611541565b80915050919050565b60008160001b9050919050565b600073ffffffffffffffffffffffffffffffffffffffff6119f9846119cc565b9350801983169250808416831791505092915050565b6000819050919050565b6000611a34611a2f611a2a84611374565b611a0f565b611374565b9050919050565b6000611a4682611a19565b9050919050565b6000611a5882611a3b565b9050919050565b6000819050919050565b611a7282611a4d565b611a85611a7e82611a5f565b83546119d9565b8255505050565b60008135611a9981611284565b80915050919050565b60007fffffffffffffffffffffffffffffffffffffffffffffffffffffffffffffffff611ace846119cc565b9350801983169250808416831791505092915050565b6000611aff611afa611af58461127a565b611a0f565b61127a565b9050919050565b6000819050919050565b611b1982611ae4565b611b2c611b2582611b06565b8354611aa2565b8255505050565b6000819050919050565b600081549050919050565b7f4e487b7100000000000000000000000000000000000000000000000000000000600052601160045260246000fd5b6000611b828261127a565b9150611b8d8361127a565b9250828202611b9b8161127a565b91508282048414831517611bb257611bb1611b48565b5b5092915050565b6000819050611bc9826002611b77565b9050919050565b60008190508160005260206000209050919050565b600082821b905092915050565b600060088302611c227fffffffffffffffffffffffffffffffffffffffffffffffffffffffffffffffff82611be5565b611c2c8683611be5565b95508019841693508086168417925050509392505050565b611c4d83611ae4565b611c61611c5982611b06565b848454611bf2565b825550505050565b600090565b611c76611c69565b611c81818484611c44565b505050565b600080820155611c9a600060018301611c6e565b50565b60008214611cae57611cad611987565b5b611cb781611c86565b5050565b5b81811015611cda57611ccf600082611c9d565b600281019050611cbc565b5050565b81831015611d1757611cef82611bb9565b611cf884611bb9565b611d0183611bd0565b818101838201611d118183611cbb565b50505050505b505050565b68010000000000000000821115611d3657611d35611583565b5b611d3f81611b3d565b828255611d4d838284611cde565b505050565b600082905092915050565b600081016000830180611d6f816119b6565b9050611d7b8184611a69565b505050600181016020830180611d9081611a8c565b9050611d9c8184611b10565b5050505050565b611dad8282611d5d565b5050565b611dbb8383611d52565b611dc58183611d1c565b611dce83611b33565b611dd783611bd0565b60005b83811015611e055782611ded8184611da3565b60408401935060028301925050600181019050611dda565b50505050505050565b611e19838383611db1565b505050565b600081016000830180611e30816119b6565b9050611e3c8184611a69565b505050600181016020830180611e51816119b6565b9050611e5d8184611a69565b505050600281016040830180611e7281611a8c565b9050611e7e8184611b10565b5050506003810160608301611e938185611924565b611e9e818386611e0e565b505050506004810160808301611eb48185611924565b611ebf818386611e0e565b505050505050565b611ed18282611e1e565b505056fea26469706673582212203f5951b750e1a5641e121cc571a05e97be9d7700a8d2827c798e4623438f454864736f6c63430008110033",
  "linkReferences": {},
  "deployedLinkReferences": {}
}