{
  "_format": "hh-sol-artifact-1",
  "contractName": "Swaplace",
  "sourceName": "contracts/Swaplace.sol",
  "abi": [
    {
      "inputs": [
        {
          "internalType": "address",
          "name": "caller",
          "type": "address"
        }
      ],
      "name": "InvalidAddress",
      "type": "error"
    },
    {
      "inputs": [],
      "name": "InvalidAssetsLength",
      "type": "error"
    },
    {
      "inputs": [
        {
          "internalType": "uint256",
          "name": "timestamp",
          "type": "uint256"
        }
      ],
      "name": "InvalidExpiry",
      "type": "error"
    },
    {
      "anonymous": false,
      "inputs": [
        {
          "indexed": true,
          "internalType": "uint256",
          "name": "swapId",
          "type": "uint256"
        },
        {
          "indexed": true,
          "internalType": "address",
          "name": "acceptee",
          "type": "address"
        }
      ],
      "name": "SwapAccepted",
      "type": "event"
    },
    {
      "anonymous": false,
      "inputs": [
        {
          "indexed": true,
          "internalType": "uint256",
          "name": "swapId",
          "type": "uint256"
        }
      ],
      "name": "SwapCanceled",
      "type": "event"
    },
    {
      "anonymous": false,
      "inputs": [
        {
          "indexed": true,
          "internalType": "uint256",
          "name": "swapId",
          "type": "uint256"
        }
      ],
      "name": "SwapCreated",
      "type": "event"
    },
    {
      "inputs": [
        {
          "internalType": "uint256",
          "name": "swapId",
          "type": "uint256"
        },
        {
          "internalType": "address",
          "name": "receiver",
          "type": "address"
        }
      ],
      "name": "acceptSwap",
      "outputs": [
        {
          "internalType": "bool",
          "name": "",
          "type": "bool"
        }
      ],
      "stateMutability": "nonpayable",
      "type": "function"
    },
    {
      "inputs": [
        {
          "internalType": "uint256",
          "name": "swapId",
          "type": "uint256"
        }
      ],
      "name": "cancelSwap",
      "outputs": [],
      "stateMutability": "nonpayable",
      "type": "function"
    },
    {
      "inputs": [
        {
          "components": [
            {
              "internalType": "address",
              "name": "owner",
              "type": "address"
            },
            {
              "internalType": "uint256",
              "name": "config",
              "type": "uint256"
            },
            {
              "components": [
                {
                  "internalType": "address",
                  "name": "addr",
                  "type": "address"
                },
                {
                  "internalType": "uint256",
                  "name": "amountOrId",
                  "type": "uint256"
                }
              ],
              "internalType": "struct ISwap.Asset[]",
              "name": "biding",
              "type": "tuple[]"
            },
            {
              "components": [
                {
                  "internalType": "address",
                  "name": "addr",
                  "type": "address"
                },
                {
                  "internalType": "uint256",
                  "name": "amountOrId",
                  "type": "uint256"
                }
              ],
              "internalType": "struct ISwap.Asset[]",
              "name": "asking",
              "type": "tuple[]"
            }
          ],
          "internalType": "struct ISwap.Swap",
          "name": "swap",
          "type": "tuple"
        }
      ],
      "name": "createSwap",
      "outputs": [
        {
          "internalType": "uint256",
          "name": "",
          "type": "uint256"
        }
      ],
      "stateMutability": "nonpayable",
      "type": "function"
    },
    {
      "inputs": [
        {
          "internalType": "uint256",
          "name": "swapId",
          "type": "uint256"
        }
      ],
      "name": "getSwap",
      "outputs": [
        {
          "components": [
            {
              "internalType": "address",
              "name": "owner",
              "type": "address"
            },
            {
              "internalType": "uint256",
              "name": "config",
              "type": "uint256"
            },
            {
              "components": [
                {
                  "internalType": "address",
                  "name": "addr",
                  "type": "address"
                },
                {
                  "internalType": "uint256",
                  "name": "amountOrId",
                  "type": "uint256"
                }
              ],
              "internalType": "struct ISwap.Asset[]",
              "name": "biding",
              "type": "tuple[]"
            },
            {
              "components": [
                {
                  "internalType": "address",
                  "name": "addr",
                  "type": "address"
                },
                {
                  "internalType": "uint256",
                  "name": "amountOrId",
                  "type": "uint256"
                }
              ],
              "internalType": "struct ISwap.Asset[]",
              "name": "asking",
              "type": "tuple[]"
            }
          ],
          "internalType": "struct ISwap.Swap",
          "name": "",
          "type": "tuple"
        }
      ],
      "stateMutability": "view",
      "type": "function"
    },
    {
      "inputs": [
        {
          "internalType": "address",
          "name": "addr",
          "type": "address"
        },
        {
          "internalType": "uint256",
          "name": "amountOrId",
          "type": "uint256"
        }
      ],
      "name": "makeAsset",
      "outputs": [
        {
          "components": [
            {
              "internalType": "address",
              "name": "addr",
              "type": "address"
            },
            {
              "internalType": "uint256",
              "name": "amountOrId",
              "type": "uint256"
            }
          ],
          "internalType": "struct ISwap.Asset",
          "name": "",
          "type": "tuple"
        }
      ],
      "stateMutability": "pure",
      "type": "function"
    },
    {
      "inputs": [
        {
          "internalType": "address",
          "name": "owner",
          "type": "address"
        },
        {
          "internalType": "address",
          "name": "allowed",
          "type": "address"
        },
        {
          "internalType": "uint256",
          "name": "expiry",
          "type": "uint256"
        },
        {
          "components": [
            {
              "internalType": "address",
              "name": "addr",
              "type": "address"
            },
            {
              "internalType": "uint256",
              "name": "amountOrId",
              "type": "uint256"
            }
          ],
          "internalType": "struct ISwap.Asset[]",
          "name": "biding",
          "type": "tuple[]"
        },
        {
          "components": [
            {
              "internalType": "address",
              "name": "addr",
              "type": "address"
            },
            {
              "internalType": "uint256",
              "name": "amountOrId",
              "type": "uint256"
            }
          ],
          "internalType": "struct ISwap.Asset[]",
          "name": "asking",
          "type": "tuple[]"
        }
      ],
      "name": "makeSwap",
      "outputs": [
        {
          "components": [
            {
              "internalType": "address",
              "name": "owner",
              "type": "address"
            },
            {
              "internalType": "uint256",
              "name": "config",
              "type": "uint256"
            },
            {
              "components": [
                {
                  "internalType": "address",
                  "name": "addr",
                  "type": "address"
                },
                {
                  "internalType": "uint256",
                  "name": "amountOrId",
                  "type": "uint256"
                }
              ],
              "internalType": "struct ISwap.Asset[]",
              "name": "biding",
              "type": "tuple[]"
            },
            {
              "components": [
                {
                  "internalType": "address",
                  "name": "addr",
                  "type": "address"
                },
                {
                  "internalType": "uint256",
                  "name": "amountOrId",
                  "type": "uint256"
                }
              ],
              "internalType": "struct ISwap.Asset[]",
              "name": "asking",
              "type": "tuple[]"
            }
          ],
          "internalType": "struct ISwap.Swap",
          "name": "",
          "type": "tuple"
        }
      ],
      "stateMutability": "view",
      "type": "function"
    },
    {
      "inputs": [
        {
          "internalType": "address",
          "name": "allowed",
          "type": "address"
        },
        {
          "internalType": "uint256",
          "name": "expiry",
          "type": "uint256"
        }
      ],
      "name": "packData",
      "outputs": [
        {
          "internalType": "uint256",
          "name": "",
          "type": "uint256"
        }
      ],
      "stateMutability": "pure",
      "type": "function"
    },
    {
      "inputs": [
        {
          "internalType": "uint256",
          "name": "config",
          "type": "uint256"
        }
      ],
      "name": "parseData",
      "outputs": [
        {
          "internalType": "address",
          "name": "",
          "type": "address"
        },
        {
          "internalType": "uint256",
          "name": "",
          "type": "uint256"
        }
      ],
      "stateMutability": "pure",
      "type": "function"
    },
    {
      "inputs": [
        {
          "internalType": "bytes4",
          "name": "interfaceID",
          "type": "bytes4"
        }
      ],
      "name": "supportsInterface",
      "outputs": [
        {
          "internalType": "bool",
          "name": "",
          "type": "bool"
        }
      ],
      "stateMutability": "pure",
      "type": "function"
    },
    {
      "inputs": [],
      "name": "totalSwaps",
      "outputs": [
        {
          "internalType": "uint256",
          "name": "",
          "type": "uint256"
        }
      ],
      "stateMutability": "view",
      "type": "function"
    }
  ],
  "bytecode": "0x608060405234801561001057600080fd5b50611c23806100206000396000f3fe608060405234801561001057600080fd5b506004361061009e5760003560e01c80639df7f0b4116100665780639df7f0b41461017f578063a15b709e146101af578063b4a800ce146101e0578063c547ff07146101fe578063fb11ec691461022e5761009e565b806301ffc9a7146100a35780634a0d89ba146100d357806354d6a2b7146101035780635bd3d3a01461011f5780639bd4563f1461014f575b600080fd5b6100bd60048036038101906100b89190610efa565b61025e565b6040516100ca9190610f42565b60405180910390f35b6100ed60048036038101906100e89190610f93565b610330565b6040516100fa9190611158565b60405180910390f35b61011d60048036038101906101189190610f93565b61053b565b005b610139600480360381019061013491906111a6565b610697565b60405161014691906111f5565b60405180910390f35b610169600480360381019061016491906113be565b6106be565b6040516101769190611158565b60405180910390f35b610199600480360381019061019491906111a6565b6107a4565b6040516101a691906114a0565b60405180910390f35b6101c960048036038101906101c49190610f93565b6107df565b6040516101d79291906114ca565b60405180910390f35b6101e86107ff565b6040516101f591906111f5565b60405180910390f35b61021860048036038101906102139190611517565b610808565b60405161022591906111f5565b60405180910390f35b61024860048036038101906102439190611560565b6108f4565b6040516102559190610f42565b60405180910390f35b60007f01ffc9a7000000000000000000000000000000000000000000000000000000007bffffffffffffffffffffffffffffffffffffffffffffffffffffffff1916827bffffffffffffffffffffffffffffffffffffffffffffffffffffffff1916148061032957507f208d3863000000000000000000000000000000000000000000000000000000007bffffffffffffffffffffffffffffffffffffffffffffffffffffffff1916827bffffffffffffffffffffffffffffffffffffffffffffffffffffffff1916145b9050919050565b610338610e20565b600160008381526020019081526020016000206040518060800160405290816000820160009054906101000a900473ffffffffffffffffffffffffffffffffffffffff1673ffffffffffffffffffffffffffffffffffffffff1673ffffffffffffffffffffffffffffffffffffffff1681526020016001820154815260200160028201805480602002602001604051908101604052809291908181526020016000905b8282101561046d57838290600052602060002090600202016040518060400160405290816000820160009054906101000a900473ffffffffffffffffffffffffffffffffffffffff1673ffffffffffffffffffffffffffffffffffffffff1673ffffffffffffffffffffffffffffffffffffffff168152602001600182015481525050815260200190600101906103db565b50505050815260200160038201805480602002602001604051908101604052809291908181526020016000905b8282101561052c57838290600052602060002090600202016040518060400160405290816000820160009054906101000a900473ffffffffffffffffffffffffffffffffffffffff1673ffffffffffffffffffffffffffffffffffffffff1673ffffffffffffffffffffffffffffffffffffffff1681526020016001820154815250508152602001906001019061049a565b50505050815250509050919050565b3373ffffffffffffffffffffffffffffffffffffffff166001600083815260200190815260200160002060000160009054906101000a900473ffffffffffffffffffffffffffffffffffffffff1673ffffffffffffffffffffffffffffffffffffffff16146105e157336040517f8e4c8aa60000000000000000000000000000000000000000000000000000000081526004016105d891906115a0565b60405180910390fd5b600061060260016000848152602001908152602001600020600101546107df565b9150504281101561064a57806040517f3accc52b00000000000000000000000000000000000000000000000000000000815260040161064191906111f5565b60405180910390fd5b60006001600084815260200190815260200160002060010181905550817fa257d9d6f612f40ec2b5b923498439d7875f09292420614ba87d9c32b2b1f9e660405160405180910390a25050565b60008160608473ffffffffffffffffffffffffffffffffffffffff16901b17905092915050565b6106c6610e20565b4284101561070b57836040517f3accc52b00000000000000000000000000000000000000000000000000000000815260040161070291906111f5565b60405180910390fd5b60008351148061071c575060008251145b15610753576040517fb6ea7e2700000000000000000000000000000000000000000000000000000000815260040160405180910390fd5b600061075f8686610697565b905060405180608001604052808873ffffffffffffffffffffffffffffffffffffffff1681526020018281526020018581526020018481525091505095945050505050565b6107ac610e5e565b60405180604001604052808473ffffffffffffffffffffffffffffffffffffffff16815260200183815250905092915050565b600080606083901c6bffffffffffffffffffffffff841691509150915091565b60008054905090565b60003373ffffffffffffffffffffffffffffffffffffffff1682600001602081019061083491906115bb565b73ffffffffffffffffffffffffffffffffffffffff161461088c57336040517f8e4c8aa600000000000000000000000000000000000000000000000000000000815260040161088391906115a0565b60405180910390fd5b600160005401600055600080549050826001600083815260200190815260200160002081816108bb9190611b79565b905050807f82bd0758e34b8ab9f7b98c6934b9b2cdc27356438b9b1557930994ad0093ed0460405160405180910390a280915050919050565b600080600160008581526020019081526020016000206040518060800160405290816000820160009054906101000a900473ffffffffffffffffffffffffffffffffffffffff1673ffffffffffffffffffffffffffffffffffffffff1673ffffffffffffffffffffffffffffffffffffffff1681526020016001820154815260200160028201805480602002602001604051908101604052809291908181526020016000905b82821015610a2c57838290600052602060002090600202016040518060400160405290816000820160009054906101000a900473ffffffffffffffffffffffffffffffffffffffff1673ffffffffffffffffffffffffffffffffffffffff1673ffffffffffffffffffffffffffffffffffffffff1681526020016001820154815250508152602001906001019061099a565b50505050815260200160038201805480602002602001604051908101604052809291908181526020016000905b82821015610aeb57838290600052602060002090600202016040518060400160405290816000820160009054906101000a900473ffffffffffffffffffffffffffffffffffffffff1673ffffffffffffffffffffffffffffffffffffffff1673ffffffffffffffffffffffffffffffffffffffff16815260200160018201548152505081526020019060010190610a59565b50505050815250509050600080610b0583602001516107df565b91509150600073ffffffffffffffffffffffffffffffffffffffff168273ffffffffffffffffffffffffffffffffffffffff1614158015610b7257503373ffffffffffffffffffffffffffffffffffffffff168273ffffffffffffffffffffffffffffffffffffffff1614155b15610bb457336040517f8e4c8aa6000000000000000000000000000000000000000000000000000000008152600401610bab91906115a0565b60405180910390fd5b42811015610bf957806040517f3accc52b000000000000000000000000000000000000000000000000000000008152600401610bf091906111f5565b60405180910390fd5b610c04826000610697565b600160008881526020019081526020016000206001018190555060008360600151905060005b8151811015610cf657818181518110610c4657610c45611b87565b5b60200260200101516000015173ffffffffffffffffffffffffffffffffffffffff166323b872dd338760000151858581518110610c8657610c85611b87565b5b6020026020010151602001516040518463ffffffff1660e01b8152600401610cb093929190611bb6565b600060405180830381600087803b158015610cca57600080fd5b505af1158015610cde573d6000803e3d6000fd5b50505050604051905060018101905080604052610c2a565b508360400151905060005b8151811015610dcd57818181518110610d1d57610d1c611b87565b5b60200260200101516000015173ffffffffffffffffffffffffffffffffffffffff166323b872dd866000015189858581518110610d5d57610d5c611b87565b5b6020026020010151602001516040518463ffffffff1660e01b8152600401610d8793929190611bb6565b600060405180830381600087803b158015610da157600080fd5b505af1158015610db5573d6000803e3d6000fd5b50505050604051905060018101905080604052610d01565b503373ffffffffffffffffffffffffffffffffffffffff16877f38eced64b5c4ab50bb61d2f5fcace3c629a2d92f974374bf4a4f3e8a7c49caef60405160405180910390a3600194505050505092915050565b6040518060800160405280600073ffffffffffffffffffffffffffffffffffffffff1681526020016000815260200160608152602001606081525090565b6040518060400160405280600073ffffffffffffffffffffffffffffffffffffffff168152602001600081525090565b6000604051905090565b600080fd5b600080fd5b60007fffffffff0000000000000000000000000000000000000000000000000000000082169050919050565b610ed781610ea2565b8114610ee257600080fd5b50565b600081359050610ef481610ece565b92915050565b600060208284031215610f1057610f0f610e98565b5b6000610f1e84828501610ee5565b91505092915050565b60008115159050919050565b610f3c81610f27565b82525050565b6000602082019050610f576000830184610f33565b92915050565b6000819050919050565b610f7081610f5d565b8114610f7b57600080fd5b50565b600081359050610f8d81610f67565b92915050565b600060208284031215610fa957610fa8610e98565b5b6000610fb784828501610f7e565b91505092915050565b600073ffffffffffffffffffffffffffffffffffffffff82169050919050565b6000610feb82610fc0565b9050919050565b610ffb81610fe0565b82525050565b61100a81610f5d565b82525050565b600081519050919050565b600082825260208201905092915050565b6000819050602082019050919050565b6040820160008201516110526000850182610ff2565b5060208201516110656020850182611001565b50505050565b6000611077838361103c565b60408301905092915050565b6000602082019050919050565b600061109b82611010565b6110a5818561101b565b93506110b08361102c565b8060005b838110156110e15781516110c8888261106b565b97506110d383611083565b9250506001810190506110b4565b5085935050505092915050565b60006080830160008301516111066000860182610ff2565b5060208301516111196020860182611001565b50604083015184820360408601526111318282611090565b9150506060830151848203606086015261114b8282611090565b9150508091505092915050565b6000602082019050818103600083015261117281846110ee565b905092915050565b61118381610fe0565b811461118e57600080fd5b50565b6000813590506111a08161117a565b92915050565b600080604083850312156111bd576111bc610e98565b5b60006111cb85828601611191565b92505060206111dc85828601610f7e565b9150509250929050565b6111ef81610f5d565b82525050565b600060208201905061120a60008301846111e6565b92915050565b600080fd5b6000601f19601f8301169050919050565b7f4e487b7100000000000000000000000000000000000000000000000000000000600052604160045260246000fd5b61125e82611215565b810181811067ffffffffffffffff8211171561127d5761127c611226565b5b80604052505050565b6000611290610e8e565b905061129c8282611255565b919050565b600067ffffffffffffffff8211156112bc576112bb611226565b5b602082029050602081019050919050565b600080fd5b600080fd5b6000604082840312156112ed576112ec6112d2565b5b6112f76040611286565b9050600061130784828501611191565b600083015250602061131b84828501610f7e565b60208301525092915050565b600061133a611335846112a1565b611286565b9050808382526020820190506040840283018581111561135d5761135c6112cd565b5b835b81811015611386578061137288826112d7565b84526020840193505060408101905061135f565b5050509392505050565b600082601f8301126113a5576113a4611210565b5b81356113b5848260208601611327565b91505092915050565b600080600080600060a086880312156113da576113d9610e98565b5b60006113e888828901611191565b95505060206113f988828901611191565b945050604061140a88828901610f7e565b935050606086013567ffffffffffffffff81111561142b5761142a610e9d565b5b61143788828901611390565b925050608086013567ffffffffffffffff81111561145857611457610e9d565b5b61146488828901611390565b9150509295509295909350565b6040820160008201516114876000850182610ff2565b50602082015161149a6020850182611001565b50505050565b60006040820190506114b56000830184611471565b92915050565b6114c481610fe0565b82525050565b60006040820190506114df60008301856114bb565b6114ec60208301846111e6565b9392505050565b600080fd5b60006080828403121561150e5761150d6114f3565b5b81905092915050565b60006020828403121561152d5761152c610e98565b5b600082013567ffffffffffffffff81111561154b5761154a610e9d565b5b611557848285016114f8565b91505092915050565b6000806040838503121561157757611576610e98565b5b600061158585828601610f7e565b925050602061159685828601611191565b9150509250929050565b60006020820190506115b560008301846114bb565b92915050565b6000602082840312156115d1576115d0610e98565b5b60006115df84828501611191565b91505092915050565b7f4e487b7100000000000000000000000000000000000000000000000000000000600052600060045260246000fd5b600081356116248161117a565b80915050919050565b60008160001b9050919050565b600073ffffffffffffffffffffffffffffffffffffffff61165a8461162d565b9350801983169250808416831791505092915050565b6000819050919050565b600061169561169061168b84610fc0565b611670565b610fc0565b9050919050565b60006116a78261167a565b9050919050565b60006116b98261169c565b9050919050565b6000819050919050565b6116d3826116ae565b6116e66116df826116c0565b835461163a565b8255505050565b600081356116fa81610f67565b80915050919050565b60007fffffffffffffffffffffffffffffffffffffffffffffffffffffffffffffffff61172f8461162d565b9350801983169250808416831791505092915050565b600061176061175b61175684610f5d565b611670565b610f5d565b9050919050565b6000819050919050565b61177a82611745565b61178d61178682611767565b8354611703565b8255505050565b600080fd5b600080fd5b600080fd5b600080833560016020038436030381126117c0576117bf611794565b5b80840192508235915067ffffffffffffffff8211156117e2576117e1611799565b5b6020830192506040820236038313156117fe576117fd61179e565b5b509250929050565b6000819050919050565b600081549050919050565b7f4e487b7100000000000000000000000000000000000000000000000000000000600052601160045260246000fd5b600061185582610f5d565b915061186083610f5d565b925082820261186e81610f5d565b915082820484148315176118855761188461181b565b5b5092915050565b600081905061189c82600261184a565b9050919050565b60008190508160005260206000209050919050565b600082821b905092915050565b6000600883026118f57fffffffffffffffffffffffffffffffffffffffffffffffffffffffffffffffff826118b8565b6118ff86836118b8565b95508019841693508086168417925050509392505050565b61192083611745565b61193461192c82611767565b8484546118c5565b825550505050565b600090565b61194961193c565b611954818484611917565b505050565b60008082015561196d600060018301611941565b50565b60008214611981576119806115e8565b5b61198a81611959565b5050565b5b818110156119ad576119a2600082611970565b60028101905061198f565b5050565b818310156119ea576119c28261188c565b6119cb8461188c565b6119d4836118a3565b8181018382016119e4818361198e565b50505050505b505050565b68010000000000000000821115611a0957611a08611226565b5b611a1281611810565b828255611a208382846119b1565b505050565b600082905092915050565b600081016000830180611a4281611617565b9050611a4e81846116ca565b505050600181016020830180611a63816116ed565b9050611a6f8184611771565b5050505050565b611a808282611a30565b5050565b611a8e8383611a25565b611a9881836119ef565b611aa183611806565b611aaa836118a3565b60005b83811015611ad85782611ac08184611a76565b60408401935060028301925050600181019050611aad565b50505050505050565b611aec838383611a84565b505050565b600081016000830180611b0381611617565b9050611b0f81846116ca565b505050600181016020830180611b24816116ed565b9050611b308184611771565b5050506002810160408301611b4581856117a3565b611b50818386611ae1565b505050506003810160608301611b6681856117a3565b611b71818386611ae1565b505050505050565b611b838282611af1565b5050565b7f4e487b7100000000000000000000000000000000000000000000000000000000600052603260045260246000fd5b6000606082019050611bcb60008301866114bb565b611bd860208301856114bb565b611be560408301846111e6565b94935050505056fea264697066735822122036e29b0a372fd4d93eb2de7b8643ee48cff7c56b00036827eb2c2bf060f4a9d464736f6c63430008110033",
  "linkReferences": {},
  "deployedLinkReferences": {}
}