{
  "_format": "hh-sol-artifact-1",
  "contractName": "Swaplace",
  "sourceName": "contracts/Swaplace.sol",
  "abi": [
    {
      "inputs": [
        {
          "internalType": "address",
          "name": "caller",
          "type": "address"
        }
      ],
      "name": "InvalidAddress",
      "type": "error"
    },
    {
      "inputs": [],
      "name": "InvalidAssetsLength",
      "type": "error"
    },
    {
      "inputs": [
        {
          "internalType": "uint256",
          "name": "timestamp",
          "type": "uint256"
        }
      ],
      "name": "InvalidExpiry",
      "type": "error"
    },
    {
      "anonymous": false,
      "inputs": [
        {
          "indexed": true,
          "internalType": "uint256",
          "name": "swapId",
          "type": "uint256"
        },
        {
          "indexed": true,
          "internalType": "address",
          "name": "owner",
          "type": "address"
        },
        {
          "indexed": true,
          "internalType": "address",
          "name": "allowed",
          "type": "address"
        }
      ],
      "name": "SwapAccepted",
      "type": "event"
    },
    {
      "anonymous": false,
      "inputs": [
        {
          "indexed": true,
          "internalType": "uint256",
          "name": "swapId",
          "type": "uint256"
        },
        {
          "indexed": true,
          "internalType": "address",
          "name": "owner",
          "type": "address"
        }
      ],
      "name": "SwapCanceled",
      "type": "event"
    },
    {
      "anonymous": false,
      "inputs": [
        {
          "indexed": true,
          "internalType": "uint256",
          "name": "swapId",
          "type": "uint256"
        },
        {
          "indexed": true,
          "internalType": "address",
          "name": "owner",
          "type": "address"
        },
        {
          "indexed": true,
          "internalType": "address",
          "name": "allowed",
          "type": "address"
        }
      ],
      "name": "SwapCreated",
      "type": "event"
    },
    {
      "inputs": [
        {
          "internalType": "uint256",
          "name": "swapId",
          "type": "uint256"
        },
        {
          "internalType": "address",
          "name": "receiver",
          "type": "address"
        }
      ],
      "name": "acceptSwap",
      "outputs": [
        {
          "internalType": "bool",
          "name": "",
          "type": "bool"
        }
      ],
      "stateMutability": "nonpayable",
      "type": "function"
    },
    {
      "inputs": [
        {
          "internalType": "uint256",
          "name": "swapId",
          "type": "uint256"
        }
      ],
      "name": "cancelSwap",
      "outputs": [],
      "stateMutability": "nonpayable",
      "type": "function"
    },
    {
      "inputs": [
        {
          "components": [
            {
              "internalType": "address",
              "name": "owner",
              "type": "address"
            },
            {
              "internalType": "uint256",
              "name": "config",
              "type": "uint256"
            },
            {
              "components": [
                {
                  "internalType": "address",
                  "name": "addr",
                  "type": "address"
                },
                {
                  "internalType": "uint256",
                  "name": "amountOrId",
                  "type": "uint256"
                }
              ],
              "internalType": "struct ISwap.Asset[]",
              "name": "biding",
              "type": "tuple[]"
            },
            {
              "components": [
                {
                  "internalType": "address",
                  "name": "addr",
                  "type": "address"
                },
                {
                  "internalType": "uint256",
                  "name": "amountOrId",
                  "type": "uint256"
                }
              ],
              "internalType": "struct ISwap.Asset[]",
              "name": "asking",
              "type": "tuple[]"
            }
          ],
          "internalType": "struct ISwap.Swap",
          "name": "swap",
          "type": "tuple"
        }
      ],
      "name": "createSwap",
      "outputs": [
        {
          "internalType": "uint256",
          "name": "",
          "type": "uint256"
        }
      ],
      "stateMutability": "nonpayable",
      "type": "function"
    },
    {
      "inputs": [
        {
          "internalType": "uint256",
          "name": "swapId",
          "type": "uint256"
        }
      ],
      "name": "getSwap",
      "outputs": [
        {
          "components": [
            {
              "internalType": "address",
              "name": "owner",
              "type": "address"
            },
            {
              "internalType": "uint256",
              "name": "config",
              "type": "uint256"
            },
            {
              "components": [
                {
                  "internalType": "address",
                  "name": "addr",
                  "type": "address"
                },
                {
                  "internalType": "uint256",
                  "name": "amountOrId",
                  "type": "uint256"
                }
              ],
              "internalType": "struct ISwap.Asset[]",
              "name": "biding",
              "type": "tuple[]"
            },
            {
              "components": [
                {
                  "internalType": "address",
                  "name": "addr",
                  "type": "address"
                },
                {
                  "internalType": "uint256",
                  "name": "amountOrId",
                  "type": "uint256"
                }
              ],
              "internalType": "struct ISwap.Asset[]",
              "name": "asking",
              "type": "tuple[]"
            }
          ],
          "internalType": "struct ISwap.Swap",
          "name": "",
          "type": "tuple"
        }
      ],
      "stateMutability": "view",
      "type": "function"
    },
    {
      "inputs": [
        {
          "internalType": "address",
          "name": "addr",
          "type": "address"
        },
        {
          "internalType": "uint256",
          "name": "amountOrId",
          "type": "uint256"
        }
      ],
      "name": "makeAsset",
      "outputs": [
        {
          "components": [
            {
              "internalType": "address",
              "name": "addr",
              "type": "address"
            },
            {
              "internalType": "uint256",
              "name": "amountOrId",
              "type": "uint256"
            }
          ],
          "internalType": "struct ISwap.Asset",
          "name": "",
          "type": "tuple"
        }
      ],
      "stateMutability": "pure",
      "type": "function"
    },
    {
      "inputs": [
        {
          "internalType": "address",
          "name": "owner",
          "type": "address"
        },
        {
          "internalType": "address",
          "name": "allowed",
          "type": "address"
        },
        {
          "internalType": "uint256",
          "name": "expiry",
          "type": "uint256"
        },
        {
          "components": [
            {
              "internalType": "address",
              "name": "addr",
              "type": "address"
            },
            {
              "internalType": "uint256",
              "name": "amountOrId",
              "type": "uint256"
            }
          ],
          "internalType": "struct ISwap.Asset[]",
          "name": "biding",
          "type": "tuple[]"
        },
        {
          "components": [
            {
              "internalType": "address",
              "name": "addr",
              "type": "address"
            },
            {
              "internalType": "uint256",
              "name": "amountOrId",
              "type": "uint256"
            }
          ],
          "internalType": "struct ISwap.Asset[]",
          "name": "asking",
          "type": "tuple[]"
        }
      ],
      "name": "makeSwap",
      "outputs": [
        {
          "components": [
            {
              "internalType": "address",
              "name": "owner",
              "type": "address"
            },
            {
              "internalType": "uint256",
              "name": "config",
              "type": "uint256"
            },
            {
              "components": [
                {
                  "internalType": "address",
                  "name": "addr",
                  "type": "address"
                },
                {
                  "internalType": "uint256",
                  "name": "amountOrId",
                  "type": "uint256"
                }
              ],
              "internalType": "struct ISwap.Asset[]",
              "name": "biding",
              "type": "tuple[]"
            },
            {
              "components": [
                {
                  "internalType": "address",
                  "name": "addr",
                  "type": "address"
                },
                {
                  "internalType": "uint256",
                  "name": "amountOrId",
                  "type": "uint256"
                }
              ],
              "internalType": "struct ISwap.Asset[]",
              "name": "asking",
              "type": "tuple[]"
            }
          ],
          "internalType": "struct ISwap.Swap",
          "name": "",
          "type": "tuple"
        }
      ],
      "stateMutability": "view",
      "type": "function"
    },
    {
      "inputs": [
        {
          "internalType": "address",
          "name": "allowed",
          "type": "address"
        },
        {
          "internalType": "uint256",
          "name": "expiry",
          "type": "uint256"
        }
      ],
      "name": "packData",
      "outputs": [
        {
          "internalType": "uint256",
          "name": "",
          "type": "uint256"
        }
      ],
      "stateMutability": "pure",
      "type": "function"
    },
    {
      "inputs": [
        {
          "internalType": "uint256",
          "name": "config",
          "type": "uint256"
        }
      ],
      "name": "parseData",
      "outputs": [
        {
          "internalType": "address",
          "name": "",
          "type": "address"
        },
        {
          "internalType": "uint256",
          "name": "",
          "type": "uint256"
        }
      ],
      "stateMutability": "pure",
      "type": "function"
    },
    {
      "inputs": [
        {
          "internalType": "bytes4",
          "name": "interfaceID",
          "type": "bytes4"
        }
      ],
      "name": "supportsInterface",
      "outputs": [
        {
          "internalType": "bool",
          "name": "",
          "type": "bool"
        }
      ],
      "stateMutability": "pure",
      "type": "function"
    },
    {
      "inputs": [],
      "name": "totalSwaps",
      "outputs": [
        {
          "internalType": "uint256",
          "name": "",
          "type": "uint256"
        }
      ],
      "stateMutability": "view",
      "type": "function"
    }
  ],
  "bytecode": "0x608060405234801561001057600080fd5b50611c8d806100206000396000f3fe608060405234801561001057600080fd5b506004361061009e5760003560e01c80639df7f0b4116100665780639df7f0b41461017f578063a15b709e146101af578063b4a800ce146101e0578063c547ff07146101fe578063fb11ec691461022e5761009e565b806301ffc9a7146100a35780634a0d89ba146100d357806354d6a2b7146101035780635bd3d3a01461011f5780639bd4563f1461014f575b600080fd5b6100bd60048036038101906100b89190610f64565b61025e565b6040516100ca9190610fac565b60405180910390f35b6100ed60048036038101906100e89190610ffd565b610330565b6040516100fa91906111c2565b60405180910390f35b61011d60048036038101906101189190610ffd565b61053b565b005b61013960048036038101906101349190611210565b6106ae565b604051610146919061125f565b60405180910390f35b61016960048036038101906101649190611428565b6106d5565b60405161017691906111c2565b60405180910390f35b61019960048036038101906101949190611210565b6107bb565b6040516101a6919061150a565b60405180910390f35b6101c960048036038101906101c49190610ffd565b6107f6565b6040516101d7929190611534565b60405180910390f35b6101e8610816565b6040516101f5919061125f565b60405180910390f35b61021860048036038101906102139190611581565b61081f565b604051610225919061125f565b60405180910390f35b610248600480360381019061024391906115ca565b61094c565b6040516102559190610fac565b60405180910390f35b60007f01ffc9a7000000000000000000000000000000000000000000000000000000007bffffffffffffffffffffffffffffffffffffffffffffffffffffffff1916827bffffffffffffffffffffffffffffffffffffffffffffffffffffffff1916148061032957507f208d3863000000000000000000000000000000000000000000000000000000007bffffffffffffffffffffffffffffffffffffffffffffffffffffffff1916827bffffffffffffffffffffffffffffffffffffffffffffffffffffffff1916145b9050919050565b610338610e8a565b600160008381526020019081526020016000206040518060800160405290816000820160009054906101000a900473ffffffffffffffffffffffffffffffffffffffff1673ffffffffffffffffffffffffffffffffffffffff1673ffffffffffffffffffffffffffffffffffffffff1681526020016001820154815260200160028201805480602002602001604051908101604052809291908181526020016000905b8282101561046d57838290600052602060002090600202016040518060400160405290816000820160009054906101000a900473ffffffffffffffffffffffffffffffffffffffff1673ffffffffffffffffffffffffffffffffffffffff1673ffffffffffffffffffffffffffffffffffffffff168152602001600182015481525050815260200190600101906103db565b50505050815260200160038201805480602002602001604051908101604052809291908181526020016000905b8282101561052c57838290600052602060002090600202016040518060400160405290816000820160009054906101000a900473ffffffffffffffffffffffffffffffffffffffff1673ffffffffffffffffffffffffffffffffffffffff1673ffffffffffffffffffffffffffffffffffffffff1681526020016001820154815250508152602001906001019061049a565b50505050815250509050919050565b3373ffffffffffffffffffffffffffffffffffffffff166001600083815260200190815260200160002060000160009054906101000a900473ffffffffffffffffffffffffffffffffffffffff1673ffffffffffffffffffffffffffffffffffffffff16146105e157336040517f8e4c8aa60000000000000000000000000000000000000000000000000000000081526004016105d8919061160a565b60405180910390fd5b600061060260016000848152602001908152602001600020600101546107f6565b9150504281101561064a57806040517f3accc52b000000000000000000000000000000000000000000000000000000008152600401610641919061125f565b60405180910390fd5b600060016000848152602001908152602001600020600101819055503373ffffffffffffffffffffffffffffffffffffffff16827f0a01e988a96145b1dd49cafc687666a0525e6b929299df4652cc646915e696d860405160405180910390a35050565b60008160608473ffffffffffffffffffffffffffffffffffffffff16901b17905092915050565b6106dd610e8a565b4284101561072257836040517f3accc52b000000000000000000000000000000000000000000000000000000008152600401610719919061125f565b60405180910390fd5b600083511480610733575060008251145b1561076a576040517fb6ea7e2700000000000000000000000000000000000000000000000000000000815260040160405180910390fd5b600061077686866106ae565b905060405180608001604052808873ffffffffffffffffffffffffffffffffffffffff1681526020018281526020018581526020018481525091505095945050505050565b6107c3610ec8565b60405180604001604052808473ffffffffffffffffffffffffffffffffffffffff16815260200183815250905092915050565b600080606083901c6bffffffffffffffffffffffff841691509150915091565b60008054905090565b60003373ffffffffffffffffffffffffffffffffffffffff1682600001602081019061084b9190611625565b73ffffffffffffffffffffffffffffffffffffffff16146108a357336040517f8e4c8aa600000000000000000000000000000000000000000000000000000000815260040161089a919061160a565b60405180910390fd5b600160005401600055600080549050826001600083815260200190815260200160002081816108d29190611be3565b90505060006108e484602001356107f6565b5090508073ffffffffffffffffffffffffffffffffffffffff163373ffffffffffffffffffffffffffffffffffffffff16837f3aac258f17a492cc33fefd5baf2537a4c279fa275b8f98eae89985d2f2af710960405160405180910390a48192505050919050565b600080600160008581526020019081526020016000206040518060800160405290816000820160009054906101000a900473ffffffffffffffffffffffffffffffffffffffff1673ffffffffffffffffffffffffffffffffffffffff1673ffffffffffffffffffffffffffffffffffffffff1681526020016001820154815260200160028201805480602002602001604051908101604052809291908181526020016000905b82821015610a8457838290600052602060002090600202016040518060400160405290816000820160009054906101000a900473ffffffffffffffffffffffffffffffffffffffff1673ffffffffffffffffffffffffffffffffffffffff1673ffffffffffffffffffffffffffffffffffffffff168152602001600182015481525050815260200190600101906109f2565b50505050815260200160038201805480602002602001604051908101604052809291908181526020016000905b82821015610b4357838290600052602060002090600202016040518060400160405290816000820160009054906101000a900473ffffffffffffffffffffffffffffffffffffffff1673ffffffffffffffffffffffffffffffffffffffff1673ffffffffffffffffffffffffffffffffffffffff16815260200160018201548152505081526020019060010190610ab1565b50505050815250509050600080610b5d83602001516107f6565b91509150600073ffffffffffffffffffffffffffffffffffffffff168273ffffffffffffffffffffffffffffffffffffffff1614158015610bca57503373ffffffffffffffffffffffffffffffffffffffff168273ffffffffffffffffffffffffffffffffffffffff1614155b15610c0c57336040517f8e4c8aa6000000000000000000000000000000000000000000000000000000008152600401610c03919061160a565b60405180910390fd5b42811015610c5157806040517f3accc52b000000000000000000000000000000000000000000000000000000008152600401610c48919061125f565b60405180910390fd5b6000600160008881526020019081526020016000206001018190555060008360600151905060005b8151811015610d4557818181518110610c9557610c94611bf1565b5b60200260200101516000015173ffffffffffffffffffffffffffffffffffffffff166323b872dd338760000151858581518110610cd557610cd4611bf1565b5b6020026020010151602001516040518463ffffffff1660e01b8152600401610cff93929190611c20565b600060405180830381600087803b158015610d1957600080fd5b505af1158015610d2d573d6000803e3d6000fd5b50505050604051905060018101905080604052610c79565b508360400151905060005b8151811015610e1c57818181518110610d6c57610d6b611bf1565b5b60200260200101516000015173ffffffffffffffffffffffffffffffffffffffff166323b872dd866000015189858581518110610dac57610dab611bf1565b5b6020026020010151602001516040518463ffffffff1660e01b8152600401610dd693929190611c20565b600060405180830381600087803b158015610df057600080fd5b505af1158015610e04573d6000803e3d6000fd5b50505050604051905060018101905080604052610d50565b508273ffffffffffffffffffffffffffffffffffffffff16846000015173ffffffffffffffffffffffffffffffffffffffff16887ff8c4b0c5c69885750e8971c965c6b739ef65d2d1ff30f05862b28de912e3a87760405160405180910390a4600194505050505092915050565b6040518060800160405280600073ffffffffffffffffffffffffffffffffffffffff1681526020016000815260200160608152602001606081525090565b6040518060400160405280600073ffffffffffffffffffffffffffffffffffffffff168152602001600081525090565b6000604051905090565b600080fd5b600080fd5b60007fffffffff0000000000000000000000000000000000000000000000000000000082169050919050565b610f4181610f0c565b8114610f4c57600080fd5b50565b600081359050610f5e81610f38565b92915050565b600060208284031215610f7a57610f79610f02565b5b6000610f8884828501610f4f565b91505092915050565b60008115159050919050565b610fa681610f91565b82525050565b6000602082019050610fc16000830184610f9d565b92915050565b6000819050919050565b610fda81610fc7565b8114610fe557600080fd5b50565b600081359050610ff781610fd1565b92915050565b60006020828403121561101357611012610f02565b5b600061102184828501610fe8565b91505092915050565b600073ffffffffffffffffffffffffffffffffffffffff82169050919050565b60006110558261102a565b9050919050565b6110658161104a565b82525050565b61107481610fc7565b82525050565b600081519050919050565b600082825260208201905092915050565b6000819050602082019050919050565b6040820160008201516110bc600085018261105c565b5060208201516110cf602085018261106b565b50505050565b60006110e183836110a6565b60408301905092915050565b6000602082019050919050565b60006111058261107a565b61110f8185611085565b935061111a83611096565b8060005b8381101561114b57815161113288826110d5565b975061113d836110ed565b92505060018101905061111e565b5085935050505092915050565b6000608083016000830151611170600086018261105c565b506020830151611183602086018261106b565b506040830151848203604086015261119b82826110fa565b915050606083015184820360608601526111b582826110fa565b9150508091505092915050565b600060208201905081810360008301526111dc8184611158565b905092915050565b6111ed8161104a565b81146111f857600080fd5b50565b60008135905061120a816111e4565b92915050565b6000806040838503121561122757611226610f02565b5b6000611235858286016111fb565b925050602061124685828601610fe8565b9150509250929050565b61125981610fc7565b82525050565b60006020820190506112746000830184611250565b92915050565b600080fd5b6000601f19601f8301169050919050565b7f4e487b7100000000000000000000000000000000000000000000000000000000600052604160045260246000fd5b6112c88261127f565b810181811067ffffffffffffffff821117156112e7576112e6611290565b5b80604052505050565b60006112fa610ef8565b905061130682826112bf565b919050565b600067ffffffffffffffff82111561132657611325611290565b5b602082029050602081019050919050565b600080fd5b600080fd5b6000604082840312156113575761135661133c565b5b61136160406112f0565b90506000611371848285016111fb565b600083015250602061138584828501610fe8565b60208301525092915050565b60006113a461139f8461130b565b6112f0565b905080838252602082019050604084028301858111156113c7576113c6611337565b5b835b818110156113f057806113dc8882611341565b8452602084019350506040810190506113c9565b5050509392505050565b600082601f83011261140f5761140e61127a565b5b813561141f848260208601611391565b91505092915050565b600080600080600060a0868803121561144457611443610f02565b5b6000611452888289016111fb565b9550506020611463888289016111fb565b945050604061147488828901610fe8565b935050606086013567ffffffffffffffff81111561149557611494610f07565b5b6114a1888289016113fa565b925050608086013567ffffffffffffffff8111156114c2576114c1610f07565b5b6114ce888289016113fa565b9150509295509295909350565b6040820160008201516114f1600085018261105c565b506020820151611504602085018261106b565b50505050565b600060408201905061151f60008301846114db565b92915050565b61152e8161104a565b82525050565b60006040820190506115496000830185611525565b6115566020830184611250565b9392505050565b600080fd5b6000608082840312156115785761157761155d565b5b81905092915050565b60006020828403121561159757611596610f02565b5b600082013567ffffffffffffffff8111156115b5576115b4610f07565b5b6115c184828501611562565b91505092915050565b600080604083850312156115e1576115e0610f02565b5b60006115ef85828601610fe8565b9250506020611600858286016111fb565b9150509250929050565b600060208201905061161f6000830184611525565b92915050565b60006020828403121561163b5761163a610f02565b5b6000611649848285016111fb565b91505092915050565b7f4e487b7100000000000000000000000000000000000000000000000000000000600052600060045260246000fd5b6000813561168e816111e4565b80915050919050565b60008160001b9050919050565b600073ffffffffffffffffffffffffffffffffffffffff6116c484611697565b9350801983169250808416831791505092915050565b6000819050919050565b60006116ff6116fa6116f58461102a565b6116da565b61102a565b9050919050565b6000611711826116e4565b9050919050565b600061172382611706565b9050919050565b6000819050919050565b61173d82611718565b6117506117498261172a565b83546116a4565b8255505050565b6000813561176481610fd1565b80915050919050565b60007fffffffffffffffffffffffffffffffffffffffffffffffffffffffffffffffff61179984611697565b9350801983169250808416831791505092915050565b60006117ca6117c56117c084610fc7565b6116da565b610fc7565b9050919050565b6000819050919050565b6117e4826117af565b6117f76117f0826117d1565b835461176d565b8255505050565b600080fd5b600080fd5b600080fd5b6000808335600160200384360303811261182a576118296117fe565b5b80840192508235915067ffffffffffffffff82111561184c5761184b611803565b5b60208301925060408202360383131561186857611867611808565b5b509250929050565b6000819050919050565b600081549050919050565b7f4e487b7100000000000000000000000000000000000000000000000000000000600052601160045260246000fd5b60006118bf82610fc7565b91506118ca83610fc7565b92508282026118d881610fc7565b915082820484148315176118ef576118ee611885565b5b5092915050565b60008190506119068260026118b4565b9050919050565b60008190508160005260206000209050919050565b600082821b905092915050565b60006008830261195f7fffffffffffffffffffffffffffffffffffffffffffffffffffffffffffffffff82611922565b6119698683611922565b95508019841693508086168417925050509392505050565b61198a836117af565b61199e611996826117d1565b84845461192f565b825550505050565b600090565b6119b36119a6565b6119be818484611981565b505050565b6000808201556119d76000600183016119ab565b50565b600082146119eb576119ea611652565b5b6119f4816119c3565b5050565b5b81811015611a1757611a0c6000826119da565b6002810190506119f9565b5050565b81831015611a5457611a2c826118f6565b611a35846118f6565b611a3e8361190d565b818101838201611a4e81836119f8565b50505050505b505050565b68010000000000000000821115611a7357611a72611290565b5b611a7c8161187a565b828255611a8a838284611a1b565b505050565b600082905092915050565b600081016000830180611aac81611681565b9050611ab88184611734565b505050600181016020830180611acd81611757565b9050611ad981846117db565b5050505050565b611aea8282611a9a565b5050565b611af88383611a8f565b611b028183611a59565b611b0b83611870565b611b148361190d565b60005b83811015611b425782611b2a8184611ae0565b60408401935060028301925050600181019050611b17565b50505050505050565b611b56838383611aee565b505050565b600081016000830180611b6d81611681565b9050611b798184611734565b505050600181016020830180611b8e81611757565b9050611b9a81846117db565b5050506002810160408301611baf818561180d565b611bba818386611b4b565b505050506003810160608301611bd0818561180d565b611bdb818386611b4b565b505050505050565b611bed8282611b5b565b5050565b7f4e487b7100000000000000000000000000000000000000000000000000000000600052603260045260246000fd5b6000606082019050611c356000830186611525565b611c426020830185611525565b611c4f6040830184611250565b94935050505056fea26469706673582212206ca589a21a8458eb97ec7a8ad68a4c294ffb9fe9314918e1c62936f1c1e8781464736f6c63430008110033",
  "linkReferences": {},
  "deployedLinkReferences": {}
}